:020000040800F2
:1000000000000120110200086102000861020008DE
:10001000610200086102000861020008000000009F
:100020000000000000000000000000006102000865
:10003000610200080000000061020008610200087F
:100040006102000861020008610200086102000804
:1000500061020008610200086102000861020008F4
:1000600061020008610200086102000861020008E4
:1000700061020008610200086102000861020008D4
:10008000610200086102000861020008000000002F
:1000900000000000000000000000000061020008F5
:1000A00061020008610200086102000861020008A4
:1000B0006102000861020008610200086102000894
:1000C0006102000861020008610200086102000884
:1000D00061020008610200086102000800000000DF
:1000E00061020008610200086102000800000000CF
:1000F0000000000000000000000000006102000895
:1001000000000000610200086102000861020008AE
:1001100000000000000000000000000000000000DF
:100120006102000861020008610200086102000823
:100130006102000800000000000000000000000054
:100140000000000000000000000000006102000844
:1001500061020008610200086102000861020008F3
:1001600061020008610200080000000000000000B9
:10017000000000000000000000000000000000007F
:100180000000000061020008000000000000000004
:040190006102000800
:1001940010B5054C237833B9044B13B10448AFF3BD
:1001A40000800123237010BD2C04002000000000F7
:1001B4008C03000808B5034B1BB103490348AFF394
:1001C400008008BD00000000300400208C030008FB
:1001D400F1EE103A43F08073E1EE103A704700BF3D
:1001E40080B400AFFEE7000080B400AF064BD3F844
:1001F4008830054A43F47003C2F8883000BFBD4616
:100204005DF8047B704700BF00ED00E0DFF834D0F8
:10021400FFF7EAFF0C480D490D4A002302E0D458C9
:10022400C4500433C4188C42F9D30A4A0A4C00233C
:1002340001E013600432A242FBD300F011F8FFF78F
:10024400CFFF704700000120000000202C04002094
:10025400B80300082C0400204C040020FEE7000032
:1002640070B50D4E0D4D761BB61006D0002455F812
:10027400043B01349847A642F9D1094E094D761B37
:1002840000F082F8B61006D0002455F8043B01347F
:100294009847A642F9D170BDA8030008A803000836
:1002A400B4030008A8030008024B13B1024800F08D
:1002B40005B8704700000000CD0200080023014685
:1002C4001A46184600F01AB838B5084B084D5B1B9F
:1002D4009C1007D0043B1D44013C55F80439984751
:1002E400002CF9D1BDE8384000F054B8B803000838
:1002F400B4030008704700BF704700BF2DE9F04702
:10030400DFF880A00646DAF8000098460F469146CA
:10031400FFF7F0FF1A4B1B68D3F8484124B3656814
:100324001F2D26DC5EB96B1C0235DAF80000636011
:1003340044F82570FFF7E0FF0020BDE8F08704EBE8
:1003440085010123C1F88890D4F88821AB401A4371
:10035400022EC4F88821C1F80881E4D1D4F88C2194
:100364001343C4F88C31DEE703F5A674C3F848419F
:10037400D5E7DAF80000FFF7BFFF4FF0FF30DCE706
:10038400A403000828040020F8B500BFF8BC08BC8A
:100394009E467047F8B500BFF8BC08BC9E4670473F
:0403A4000000002035
:0C03A800AD020008D5010008B9010008F2
:0403B40095010008A7
:1003B80000000000EC02002054030020BC030020D1
:1003C8000000000000000000000000000000000025
:1003D8000000000000000000000000000000000015
:1003E8000000000000000000000000000000000005
:1003F80000000000000000000000000000000000F5
:1004080000000000000000000000000000000000E4
:1004180000000000000000000000000000000000D4
:1004280000000000000000000000000000000000C4
:1004380000000000000000000000000000000000B4
:1004480000000000000000000000000000000000A4
:100458000000000000000000010000000000000093
:100468000E33CDAB34126DE6ECDE05000B00000058
:100478000000000000000000000000000000000074
:100488000000000000000000000000000000000064
:100498000000000000000000000000000000000054
:1004A8000000000000000000000000000000000044
:0C07D800000000000000000048040020A9
:0400000508000211DC
:00000001FF
